{
  "contractName": "Election",
  "abi": [
    {
      "constant": true,
      "inputs": [],
      "name": "candidatesCount",
      "outputs": [
        {
          "name": "",
          "type": "uint256"
        }
      ],
      "payable": false,
      "stateMutability": "view",
      "type": "function"
    },
    {
      "constant": true,
      "inputs": [
        {
          "name": "",
          "type": "uint256"
        }
      ],
      "name": "candidates",
      "outputs": [
        {
          "name": "id",
          "type": "uint256"
        },
        {
          "name": "name",
          "type": "string"
        },
        {
          "name": "voteCount",
          "type": "uint256"
        }
      ],
      "payable": false,
      "stateMutability": "view",
      "type": "function"
    },
    {
      "inputs": [],
      "payable": false,
      "stateMutability": "nonpayable",
      "type": "constructor"
    }
  ],
  "bytecode": "0x608060405234801561001057600080fd5b5061005e6040805190810160405280600b81526020017f43616e64696461746520310000000000000000000000000000000000000000008152506100b0640100000000026401000000009004565b6100ab6040805190810160405280600b81526020017f43616e64696461746520320000000000000000000000000000000000000000008152506100b0640100000000026401000000009004565b6101d1565b60016000815480929190600101919050555060606040519081016040528060015481526020018281526020016000815250600080600154815260200190815260200160002060008201518160000155602082015181600101908051906020019061011b92919061012c565b506040820151816002015590505050565b828054600181600116156101000203166002900490600052602060002090601f016020900481019282601f1061016d57805160ff191683800117855561019b565b8280016001018555821561019b579182015b8281111561019a57825182559160200191906001019061017f565b5b5090506101a891906101ac565b5090565b6101ce91905b808211156101ca5760008160009055506001016101b2565b5090565b90565b610224806101e06000396000f30060806040526004361061004c576000357c0100000000000000000000000000000000000000000000000000000000900463ffffffff1680632d35a8a2146100515780633477ee2e1461007c575b600080fd5b34801561005d57600080fd5b50610066610130565b6040518082815260200191505060405180910390f35b34801561008857600080fd5b506100a760048036038101908080359060200190929190505050610136565b6040518084815260200180602001838152602001828103825284818151815260200191508051906020019080838360005b838110156100f35780820151818401526020810190506100d8565b50505050905090810190601f1680156101205780820380516001836020036101000a031916815260200191505b5094505050505060405180910390f35b60015481565b6000602052806000526040600020600091509050806000015490806001018054600181600116156101000203166002900480601f0160208091040260200160405190810160405280929190818152602001828054600181600116156101000203166002900480156101e85780601f106101bd576101008083540402835291602001916101e8565b820191906000526020600020905b8154815290600101906020018083116101cb57829003601f168201915b50505050509080600201549050835600a165627a7a72305820940822ef85d4b7d7c9bb3e6f838d6aaa6cb882d7e552e6d35e8ae3dddfecddee0029",
  "source": "pragma solidity ^0.4.23;\n\n//////////////////////////////////////////////////////////////////////////////////////////////////////////\n// SMOKE TEST\n//\n// contract Election {\n//     string public candidate;        // when declaring a variable public, \n//                                     // it is automatically assigned a getter function\n//\n//                                      // Constructor -> something that is going to run \n//                                      //                whenever we initialize our contract upon migration \n//\n//                                      // Constructor has the same name as the Contract (ETH knows this)\n//     function Election () public {       // public is necessary for Constructor\n//         candidate = \"Candidate 1\";      // variable name without _ before it is a state variable,\n//                                         //   data that belongs to our entire contract\n//     }\n// }\n//////////////////////////////////////////////////////////////////////////////////////////////////////////\n        // To see if this works, we need to create a migration \n        // to deploy our smart contract to a local blockchain \n\n\n\n\n\n//////////////////////////////////////////////////////////////////////////////////////////////////////////\n// STEP TWO\n//\n// now want to store multiple condidates in the contract\n// Want them to have more than just a name, also to track the number of votes they received\n// Want to reference the candidates by ID\n\ncontract Election {\n    // Model a Candidate \n    struct Candidate {\n        uint id;\n        string name;\n        uint voteCount;\n    }   // We need to instantiate the struct and assign it to a variable before we can stick it into storage\n    \n    // Store Candidates\n    // Fetch Candidate from storage\n    mapping(uint => Candidate) public candidates; \n        // mapping in Solidity is like hashing\n        //      uint here corresponds to id\n        // Declare this mapping public and Solidity will automatically generate a fetch function for us\n        // When we add a candidate to this mapping, we are changing the state of this contract\n\n    // Store Candidates Count in storage\n    uint public candidatesCount; // Without this we cannot keep track the size of the mapping\n                                 // Default to be 0\n\n    function Election () public {\n        addCandidate(\"Candidate 1\");\n        addCandidate(\"Candidate 2\");\n    }\n\n    function addCandidate (string _name) private { // _name is a local variable\n                                                   // Private as we don't want this accessible\n                                                   //   to public interface of our contract\n                                                   // This will only be called in Constructor function\n        candidatesCount ++;\n        candidates[candidatesCount] = Candidate(candidatesCount, _name, 0);\n    }\n}\n//////////////////////////////////////////////////////////////////////////////////////////////////////////",
  "sourcePath": "/Users/zhaopf/Desktop/election/contracts/Election.sol",
  "compiler": {
    "name": "solc",
    "version": "0.4.24+commit.e67f0147.Emscripten.clang"
  },
  "schemaVersion": "2.0.1",
  "updatedAt": "2018-07-02T06:56:46.946Z"
}